:020000040800F2
:10000000A81E002449040008E1A60008819B0008FE
:10001000D9A600082918000849D0000800000000EF
:1000200000000000000000000000000041A90008DE
:10003000C119000800000000F9A6000849A900083D
:1000400067040008670400086704000867040008E4
:1000500067040008670400086704000867040008D4
:10006000670400086704000867040008991800087E
:1000700067040008670400086704000867040008B4
:10008000670400086704000867040008F119000805
:10009000111A0008011A0008211A00086704000854
:1000A0006704000867040008670400086704000884
:1000B0006704000867040008670400086704000874
:1000C0006704000867040008670400086704000864
:1000D0006704000811B3000821B3000831B3000819
:1000E00067040008670400080000000067040008B7
:1000F0006704000867040008670400086704000834
:100100006704000867040008670400086704000823
:100110006704000867040008670400086704000813
:100120006704000867040008670400086704000803
:1001300067040008670400086704000867040008F3
:1001400000000000000000000000000000000000AF
:1001500067040008670400086704000867040008D3
:1001600067040008670400086704000867040008C3
:1001700067040008E9A60008670400080000000002
:10018000670400086704000899AB000867040008CA
:100190006704000867040008670400086704000893
:1001A00067040008670400086704000800000000F6
:1001B0006704000867040008670400086704000873
:1001C0006704000867040008000000000000000049
:1001D00000000000000000006704000800000000AC
:1001E000000000000000000000000000000000000F
:1001F0000000000000000000670400086704000819
:100200006704000867040008000000006704000895
:100210006704000867040008670400086704000812
:1002200067040008000000006704000800000000E8
:100230006704000867040008000000006704000865
:1002400067040008670400086704000867040008E2
:1002500067040008670400086704000867040008D2
:1002600067040008670400086704000867040008C2
:100270006704000867040008670400080000000025
:1002800067040008670400086704000867040008A2
:100290000000000067040008670400080000000078
:1002A00000000000670400086704000867040008F5
:1002B00001B300086704000867040008311A000849
:1002C000411A000829AA00086704000800F002F893
:1002D00000F0AAF814A696E8000CB244B344DA453C
:1002E00001D100F0A1F8BAE80F000FA696E830009F
:1002F000A5EB040504EB0607AAEB0704A7F1010729
:100300004FEA15154FEA3414A4F10104AC4201D3AD
:1003100000F08AF813F0010F18BFFB1A43F0010335
:1003200000F001F8DBE71847ACEC0000ECEC000053
:10033000103A24BF78C878C1FAD8520724BF30C811
:1003400030C144BF04680C60704700007047000073
:100350000023002400250026103A28BF78C1FBD8CE
:10036000520728BF30C148BF0B6070476E2900F0AC
:10037000D382702900F0258666290EF0E88465296D
:100380000EF0E58467290EF0E28461290EF0E18425
:1003900003681B0A28BF41F08001692900F08082B0
:1003A000642900F07D82752900F07A826F2900F0BF
:1003B000B385782900F0F185E92900F04D85E4291D
:1003C00000F04A85F52900F04785EF2900F0B08557
:1003D000F82900F0F0850368DB0928BF41F08001AF
:1003E000632901F06780732901F06C80E32901F033
:1003F0007780F32901F07C80002070471FB50EF054
:1004000099FC00F0E9FD0400002000210EF07CFCC6
:10041000401C6060002000210EF060FCE06000F0F5
:10042000BBF91FBD10B510BD01F000F91146FFF773
:10043000E5FF0DF0DDFA01F027F903B4FFF7F2FF55
:1004400003BC01F06BF900000A4880470A48804766
:100450000A480047FEE7FEE7FEE7FEE7FEE7FEE7A5
:10046000FEE7FEE7FEE7FEE705480649064A074BBA
:1004700070470000D119000851A90008CD020008FA
:10048000A01C0020A81E0024A01E0020A8160024E6
:1004900053EA020C00F069802DE9F04B4FF00006A2
:1004A000002B1FBFB3FA83F503FA05F424FA05F60F
:1004B0005E4012BF1643B2FA82F502FA05F4C5F1A6
:1004C00020051EBF22FA05FC44EA0C04203556EA3A
:1004D000044C4FEA144418BF641C4FF000084FF05E
:1004E0000009904271EB030C39D3002919BFB1FA0E
:1004F00081F701FA07F6B0FA80F700FA07F6C7F1BC
:1005000020071EBF20FA07FC46EA0C062037B6FB80
:10051000F4FCA7EB0507103F07F01F0BCBF12006FB
:100520002CFA06F60CFA0BFB44BFB3460026202F2C
:10053000A4BF5E464FF0000B5BEA060C08BF4FF00D
:10054000010B19EB0B0948EB0608ABFB027C06FB21
:1005500002CC0BFB03CCC01B71EB0C01C1E70B46BB
:10056000024641464846BDE8F08B13B5084318BF24
:100570004FF0FF300146AFF30080BDE81C407047EC
:100580007CB51D4616460C00009007D04142A142A2
:1005900002D32044401E01E04FF0FF30064B7B4465
:1005A0002A4669460190304600F0DDFB002C02D05F
:1005B000009A002111707CBDEB0700002DE9F05F6F
:1005C000894604464FF0000ADFF874B1FB44C0F8D6
:1005D00020A02046E1688847002874D0252806D04E
:1005E000D4E901219047206A401C2062F1E70026EF
:1005F0005F462046E16888472028054607DB312D05
:1006000005D2781910F8200C08B10643F1E7B007BD
:1006100001D526F00406C4F81CA00027C4F818A0D1
:100620002A2D09D028460EF051FB38B304EB870879
:10063000303DC8F8185019E059F8041B204604EB67
:1006400087029161E1688847012F054618D1E0696A
:10065000002820DA26F020061DE0D8F8180000EB6C
:10066000800005EB40003038C8F818002046E168EB
:10067000884705460EF02AFB0028EED1012F0AD04C
:100680002E2D08D12046E16888477F1C0546022FA1
:1006900046F02006C4DBA069002803DA404246F099
:1006A0000106A061F00701D026F010066C2D0BD0DA
:1006B000682D09D04C2D39D06A2D35D0742D35D008
:1006C0007A2D33D016E038E0E1682F46204688477F
:1006D000B842054609D16C2F26D04FF48060E168FE
:1006E000064320468847054604E06C2F1AD04FF495
:1006F000807006430DB3A5F14100192802D82035BA
:1007000046F400664A462946204626604E46FFF7D4
:100710002DFE80B101280BD0F61D26F0070000F158
:10072000080956E74020E4E78020D8E70020D6E714
:1007300006F104094DE7284652E7206ABDE8F09F1C
:1007400086E700004FF0000200B513469446964637
:10075000203922BFA0E80C50A0E80C50B1F12001D4
:10076000BFF4F7AF090728BFA0E80C5048BF0CC082
:100770005DF804EB890028BF40F8042B08BF7047E0
:1007800048BF20F8022B11F0804F18BF00F8012B52
:10079000704770477047704708487CB578440090B0
:1007A00007487844009C0546019004E02046016813
:1007B00008448047241DAC42F8D17CBDA0E900006C
:1007C0009EE9000010B500F00BFC006810BD10B5EC
:1007D000044600F005FC046010BD70B50446856950
:1007E0000068C10601D5302600E02026C00707D0EA
:1007F00070BDD4E9012130469047206A401C206238
:100800006D1EF6D570BD70B5044685690078C007C9
:1008100007D170BDD4E9012120209047206A401CF7
:1008200020626D1EF6D570BD09684A0501D540B23B
:100830007047C905FCD500B2704709684A0501D563
:10084000C0B27047C905FCD580B2704770B50C4680
:100850000546012A05D02878800600D5EA690023DC
:1008600002E0012305E05B1C934202D2E05C002819
:10087000F9D1A869E618C01AA861286A1844286244
:100880002846FFF7AAFF04E0D5E9012114F8010B7F
:100890009047B442F8D32846FFF7B5FF70BD00007B
:1008A0002DE9F0410646002410687529314616A549
:1008B00010D0FFF7B9FF002802DA404213A507E085
:1008C00031688A0701D512A502E0490704D511A5B0
:1008D000012401E0FFF7B1FF00210A2206F12407FD
:1008E00009E0B0FBF2FCB0FBF2F302FB1C0030307D
:1008F00078541846491C0028F3D123462A4630462E
:10090000BDE8F04100F0B5BB000000002D00000084
:100910002B0000002000000011680268006A5305E7
:1009200001D508700AE0D30501D5088006E013065A
:1009300003D5C217C1E9000200E00860012070473A
:100940002DE9FF4F0C461E464FF0FF378BB0D2E922
:100950000001DDF860800A908A46C1F30A5505B9A6
:100960003D46002108464FF00000BAF1000F00F4A8
:10097000400005DA00EB80004FF4400101EA50002E
:100980004FEA9059B9F1010F00DDB9460A9850EAD3
:100990004A000ED044F61050A5F2FF3545432F14FF
:1009A000B8F1000F1ED07542291E1EDDC9F10002EC
:1009B0001CE0B8F1010F4FF0000001D0302103E03E
:1009C000F24305E02154401CB042FBDB30460022DC
:1009D000002121540B99C1F80880C1E900200FB013
:1009E000BDE8F08FBD1B6D1CDEE74A4600DA6942A8
:1009F00006A800F081FD06AB93E8070003AB83E88F
:100A0000070050460A990DF0E6FB8DE80700A0F5B7
:100A100000501F3800900398002D0ADD42F21F019C
:100A20004A460844002303A9039068460DF050FE8F
:100A300009E0A0F500504A461F38002303A903909F
:100A400068460DF05AFE8DE807000004000C03D044
:100A50004FF0FF30410800E01046B8F1000F03D01E
:100A60000022009215461EE0751E05D400F0BCFA67
:100A7000303262556D1EF9D5B3460122084302D0CB
:100A800000227F1C04E02078302801D100227F1E44
:100A9000002A099784D01DE0112D07DA00F0A4FA8E
:100AA000303262556D1C50EA0102F5D1084302D084
:100AB0000098C8B10EE00021681E05E0235C625C6E
:100AC00063542254401E491C8142F7DBAB46A81BED
:100AD000401E0990002004F80B000B98099AC0F8FA
:100AE0000880C0E9002B7AE711264FF0000857E78D
:100AF0002DE9F04F88460446D21D22F0070191B03F
:100B0000D1E90001CDE90A010DF02EFF02460B9854
:100B1000C00F01D02D2007E02068810701D52B20D0
:100B200002E0202101EAC000032A099001D0072A2F
:100B300005DB03464146204600F072FC0BE12078BD
:100B4000800601D5E06900E00620B8F1650F814616
:100B500006D0B8F1660F18D0B8F1670F70D131E048
:100B60000020B9F1110F009001DB112301E009F120
:100B700001030AAA01A90CA8FFF7E2FEDDE90C7047
:100B8000002609F10105834647E001204B4600900D
:100B90004FF000470AAA01A90CA8FFF7D1FEDDE932
:100BA0000DB00C995D46002610B909F101000D1831
:100BB000B9EB050003D4C0F1FF3609F10105A5EB3F
:100BC00009002BE0B9F1010F01DA4FF00109002013
:100BD000B9F1110F0090484601DD112300E00346F2
:100BE0000AAA01A90CA8FFF7ABFEDDE90C704D467F
:100BF00000268346207800070AD4AB4500DA5D461C
:100C000001A8012D04DD411911F8011C302907D07C
:100C10004F4502DA17F1040F04DA012082460FE093
:100C20006D1EEEE7002F02DCED1B3E4403E0781C56
:100C3000A84200DD7D1CB81B00F1010A4FF00047FF
:100C40002078000703D4AA4501DB4FF0FF3A0021CA
:100C5000B7F1004F0DF143088DF8431024D0022066
:100C60002B23002F01DA7F422D230A21021EA0F13F
:100C7000010000DC5FB197FBF1FC97FBF1F201FB97
:100C80001C7C17460CF1300C08F801CDEEE7A8F1FA
:100C9000010003702188090501D5452100E0652187
:100CA000A0F1010800F8011C09980FA9A1EB0807A1
:100CB000FF1D00B10120411901EBEA70A169384420
:100CC000081A401EA0612078C00602D42046FFF713
:100CD00084FD099828B1D4E901219047206A401C7D
:100CE00020622078C00622D52046FFF776FD1EE060
:100CF000002E04DBB34502DD01A8805D00E030205A
:100D0000D4E901219047206A401C2062761CAAF198
:100D100001005FEA000A0AD100F05EF9C0680168CC
:100D2000405CD4E901219047206A401C2062281EC3
:100D3000A5F10105DCDC07E0D4E9012118F8010B7D
:100D40009047206A401C2062381EA7F10107F3DC9F
:100D50002046FFF758FD032011B041E601694A1C07
:100D600002610878704700B58FB0CDE901310021EC
:100D7000059105497944CDE9031011466846FFF70E
:100D80001DFC0FB000BD0000E5FFFFFFD1E900230F
:100D90009A4202D2531C0B60107070472DE9FF5F1E
:100DA00015468A460446DFF8AC80F8440027D8E9A7
:100DB00000103E46CDE9001010E03AF816106A46E1
:100DC00002A800F00BFC411C07D02178890603D54E
:100DD000E269391891420DD80744761C20788006C4
:100DE00002D5E069B84205DDAE42E6DB3AF816000E
:100DF0000028E2D1A069C01BA0612046FFF7EDFCEE
:100E0000D8E90010CDE90010002017E03AF81810DA
:100E10006A4602A800F0E2FBB0F1FF3F81460BD02A
:100E200000250DF1080B05E0D4E901211BF80500B0
:100E300090476D1C4D45F7D308F10100B042804644
:100E4000E4DB206A384420622046FFF7DCFCBDE882
:100E5000FF9F0000BADF00002DE9F0418046D21D5F
:100E600022F007020025D2E90002F52915A614D0C8
:100E7000011E72F1000106DA0023D0EB030063EBE0
:100E8000020211A608E0D8F800108B0701D50FA6C2
:100E900002E0490701D50EA601251146002408F1FC
:100EA000240704E000F0A0F830323A55641C50EA00
:100EB0000102F7D12B46324621464046BDE8F041BB
:100EC00000F0D7B8000000002D0000002B0000004B
:100ED0002000000030B4002100F1240408E002F0FA
:100EE0000705D208303542EA4372DB086554491CD5
:100EF00052EA0305F3D10468002310A2250708D5A0
:100F000004F020040C4304D0C46901230CA2641E25
:100F1000C46130BC00F0ADB810B50446214610687D
:100F2000FFF78BFC02462046BDE810400023D1E7C6
:100F3000D21D22F00701D1E90023CBE70000000019
:100F400030000000F0B40D460188090502D5214C9F
:100F50007C4402E01F4C7C440E34002100F1240646
:100F600008E002F00F071209E75D42EA03721B096D
:100F70007754491C52EA0307F3D102780023120781
:100F800004D5702D06D009B1022311342246F0BCDD
:100F900000F06FB801231034F8E770B504460D4631
:100FA00021461068FFF749FC024629462046BDE865
:100FB00070400023C6E7D21D22F00703D3E90023C7
:100FC000C0E70368126843F0200303600823C3618D
:100FD0000023B7E71CDE000000487047C80000246B
:100FE00000487047A800002430B5B0F10A0271F142
:100FF00000034FEA900E4EEA817EB0EB0E0061EBEB
:1010000091014FEA101E4EEA017E10EB0E0041EBFB
:1010100011114FEA102E4EEA016E10EB0E0041EB5B
:1010200011214FEA104E4EEA014E10EB0E0041EB3B
:101030001141401841F100014FEAD00040EA4170EF
:101040004FEAD1014FEA810444EA907410EB800525
:1010500044EB01046D1944EB0404521BA3414FF00F
:10106000000348BF0A3200D530BD401C41F10001E9
:1010700030BD2DE9F0470D4699469246044600F1F1
:1010800024080168880604D5E06921F01001216078
:1010900000E00120A84201DD471B00E00027A16914
:1010A0007A1902EB0900081AA0612078C00602D460
:1010B0002046FFF792FB002608E0D4E901211AF848
:1010C00006009047206A401C761C20624E45F4DBE7
:1010D0002078C0060AD52046FFF77FFB06E0D4E95A
:1010E000012130209047206A401C2062381EA7F161
:1010F0000107F4DC07E0D4E9012118F80500904766
:10110000206A401C2062281EA5F10105F3DC204660
:10111000FFF779FB2078000602D50220BDE8F087B2
:101120000120FBE72DE9F04F04460D46D21D22F0C9
:10113000070089B0D0E90097484639460DF014FC05
:101140000246F80F01D02D2307E02068810701D562
:101150002B2302E0202101EAC0038DF820300BB1DF
:10116000012000E00020032A824601D0072A04DB88
:101170002946204600F054F93FE12078800601D44A
:101180000D2500E0E569C7F30A560D2D49DA002167
:101190004FEA175B08464FF00000002F00F44000B4
:1011A00007DA00EB80004FF4400100EBD07001EA59
:1011B00060008115012901DD4FF0FF3100224FEA67
:1011C000850CBCF1180F06D31346ACF118004FF094
:1011D0008052C24003E04FF4801323FA0CF30CF169
:1011E0000C0CBCF1200F04D3ACF1200C09FA0CF06C
:1011F00001E007FA0CF000294FF0004801DD18B9B2
:101200000FE00ED140450CD319EB02095F4121B923
:10121000404502D19F4329EA0209BBEB175F00D08A
:10122000761C2088000502D57B48784402E07A4885
:101230007844193808AA302302F80A30037C0AF1EE
:101240000101002E0AF1020A53546A4602DC4FF0F3
:10125000300101E04FF031014FF001088DF800102E
:1012600002D0A6F2FF3603E059EA470100D06B4EE8
:10127000002D02DC2178090704D54FF002082E2149
:101280008DF80110C44600210BE0C7F303433F0172
:10129000C35C491C6D1E02F80830052908F10108DD
:1012A00001DA002DF1DC00210CE000EB1973491C80
:1012B0001B786D1E082902F808304FEA091908F159
:1012C000010801DA002DF0DC21688B0602D516E05A
:1012D000A8F10108E04505DD02EB080313F8013C25
:1012E000302BF5D0B8F1000F09DD02EB080313F83D
:1012F000013C2E2B03D1090701D4A8F10108002DD0
:1013000005DD3E2102F808106D1E08F10108407C41
:10131000002E02F8080008F1010804DA2D207642B8
:1013200002F8080002E02B2002F808000A214FF41E
:101330007A70864208F101080BDB96FBF0F330333C
:1013400002F8083096FBF0F308F1010800FB136681
:1013500001E0642E0CDB642096FBF0F3303302F8DE
:10136000083096FBF0F308F1010800FB136601E07A
:101370000A2E06DB96FBF1F0303002F8080008F187
:10138000010896FBF1F001FB1060303002F8080014
:10139000A16908F1010808EB050202EB0A00081A2E
:1013A000A0612078C00602D42046FFF716FA216A11
:1013B00008AE01EB0A00206204E0D4E9012116F82E
:1013C000010B9047BAF1010AF7D22078C00602D586
:1013D0002046FFF702FA6E4609E016F8010B3E2898
:1013E0000FD0D4E901219047206A401C2062B8F157
:1013F0000108F2D22046FFF706FA09B00320BDE843
:10140000F08F206A2844206203E0D4E901213020D3
:1014100090476D1EEBD3F8E79DDB000002FCFFFF59
:101420002DE9F0411F46044603260168072A01F40E
:10143000006004DB08B116A505E016A503E008B1BD
:1014400015A500E015A521F010002060A069C01EC0
:10145000A0610FB1401EA0612046FFF7BEF94FB159
:10146000D4E9012138469047206A401C2062C01C04
:10147000206206E0206AFAE7D4E9012115F8010BA1
:101480009047761EF8D22046FFF7BDF9BDE8F081FF
:101490004E414E006E616E00494E4600696E660018
:1014A00010B5436913B1AFF3008001E0FFF7CEF947
:1014B000012010BD127800F124010A7000224A7048
:1014C0000122EDE711684FF0FF32E9E710B54369FB
:1014D00013B1AFF3008001E0FFF760FC012010BD05
:1014E000128800F1240182840022C2840122EDE7E7
:1014F00011684FF0FF32E9E72DE9F04781461646C3
:101500008AB0354878440DC88DE80D0032487844DB
:10151000801C03AC0DC884E80D0041F69B300844E4
:10152000372190FBF1F290FBF1F5A5F1800501FB6D
:1015300012041B3C02D56442012000E00020DFF8C9
:1015400098A080460027FA44AAF1BE0A0EE0E00700
:101550000AD03246684607EB470101230AEB8101B6
:101560000DF0CBF88DE8070064107F1C002CEED145
:10157000194F7F44AE3F19E0E80715D007EB041080
:101580000DF1180A90E80E008AE80E00C068F042DB
:1015900001D1981908903246012306A903A80DF03D
:1015A000ACF803AB83E807006D10641C002DE3D199
:1015B0004FF0010332466946B8F1000F03A802D08C
:1015C0000DF086F801E00DF098F8C9E90001C9F8BE
:1015D00008200AB0BDE8F08754D900002DE9F04199
:1015E00016460C46054600F047F8036893F80101DB
:1015F000012807D0FF2C12D8185D80B101202C7073
:10160000BDE8F081D3F807013246214603F2071303
:10161000C7182846BC46BDE8F041002360474FF09C
:10162000FF30EDE700487047A80000247546FFF73B
:10163000F9FFAE4605006946534620F0070085468F
:1016400018B020B5FEF710FFBDE820404FF00006AF
:101650004FF000074FF000084FF0000BAC46ACE82D
:10166000C009ACE8C009ACE8C009ACE8C00921F089
:1016700007018D467047000010B5FFF7ADFC001D57
:1016800010BD00BF85D6000010B50446AFF3008042
:101690002046BDE81040FEF7D0BE0000000000006C
:1016A00030B44FF0013C50F8042BCCFA52F451F80E
:1016B000043BD51A20D1FCB950F8042BCCFA52F4D3
:1016C00051F8043BD51A17D1B4B950F8042BCCFA11
:1016D00052F451F8043BD51A0ED16CB950F8042BD2
:1016E000CCFA52F451F8043BD51A05D1002CDAD0CB
:1016F00030BC4FF00000704729BAB1FA81F111F007
:101700001801D1F120008440F2D1CA40CB4012F040
:10171000FF0213F0FF0330BCD01A704701491820B4
:10172000ABBEFEE72600020070470000000000008C
:1017300010B50446006842F2001140F48070C4F213
:101740000201884204D142F20830C4F2020003E0F0
:1017500046F20830C5F60200006810F4403F0FD092
:1017600006F03AF96168B1F5803F05D0B1F5403F28
:1017700022D0B1F5003F20D1090CB0FBF1F01CE004
:101780004FF40020002105F067F96168A1F580227F
:101790008B0343EA92420A2A0FD8DFE802F00606DA
:1017A00006060606383A3C3E40006FF0010202EAA7
:1017B0005141B0FBF1F000E080084BF62141C0F24E
:1017C000BE01884205D82068816821F4407181609B
:1017D00010BD47F64101C0F27D11884206D820684D
:1017E0000122816862F30921816010BD21684FF2F6
:1017F0008102C0F2FA229042886804D8022262F381
:101800000920886010BD40F44070886010BD000958
:10181000D3E74009D1E78009CFE7C009CDE7000A47
:10182000CBE7000000000000FEE700000000000021
:1018300000207047000000000020704700000000FA
:1018400010B540F6681440F25801C2F20004C2F22A
:1018500000010022204609F043FF40F230512046AB
:10186000C2F2004109F02CFF002010BD0000000072
:1018700010B540F668140146C2F20004204609F093
:101880001FFF204609F0F8FE002010BD00000000F8
:10189000002070470000000040F64440C2F2000003
:1018A00001F046BA0000000040F20F42D0F800C03C
:1018B000C4F20202944510DC6F22C4F20202944585
:1018C00020DC3F22C4F20202944536DC1022C4F22E
:1018D0000202944554D028224EE040F26F42C4F2F6
:1018E000020294451ADC40F23F42C4F202029445DF
:1018F0002ADC40F21042C4F20202944540D040F289
:10190000284239E09F22C4F20202944525DC70226D
:10191000C4F20202944533D088222DE040F29F4267
:10192000C4F2020294451FDC40F27042C4F202028B
:10193000944525D040F288421EE04022C4F20202C3
:1019400094451DD0582217E040F24042C4F20202F2
:10195000944515D040F258420EE0A022C4F2020293
:1019600094450DD0B82207E040F2B842C4F202021A
:10197000944505D040F2A042C4F20202944517D12A
:101980000CF0F8024AF6AB23103ACAF6AA23A2FBDF
:10199000033109A35F2AC1F302115B5C40F2FF31FE
:1019A0002CEA0101C36588BF043181650846704790
:1019B0002CF0FF01F9E700BF000610160006101614
:1019C0007047000000000000EFF3108072B60000C6
:1019D00044F60C00C5F60200016841F00201016006
:1019E00050F8081C8904FBD5704700000000000077
:1019F00040F6B050C2F2004002F03EBC00000000D1
:101A000040F6B050C2F2004002F036BC00000000C8
:101A100040F6BC40C2F2000002F02EBC0000000004
:101A200040F6BC40C2F2000002F026BC00000000FC
:101A300040F65060C2F2004002F01EBC0000000000
:101A400040F65060C2F2004002F016BC00000000F8
:101A5000F0B5D1E900C4D1F808E00D692CB14EEA27
:101A60000C04254345F0804C03E045EA8C4444EAED
:101A70000E0C856ED0F88470D1E907466B438D69F2
:101A800044EA0660D1F814E0CC68054307EB830014
:101A900045EA0E0647F823C046EA04434360CB6894
:101AA000002B08BFF0BD4EF6F46C08300132002365
:101AB000C0F6000CD71857F8017CC750CF68043324
:101AC0001CF80770BB42F5D3F0BD00000000000019
:101AD00090F85C20012A01D10220704770B582B0D5
:101AE00042F20835012280F85C2000230193C4F201
:101AF00002050093A5F542740368A34228D14FF66E
:101B0000006ECFF6FF7E55F80E409A6822435207CA
:101B10001ED4D1F800C02A68BCF1000F22F4404462
:101B200023D043F4807242F20013C4F202034E68E1
:101B30009A4244EA06022A602BD14FF60052CFF6B1
:101B4000FF72AA5855F80E301343DA073FD127E049
:101B5000016E41F0200101660121002280F85C2025
:101B600002B0BDE870400846704742F2001243F4EC
:101B70008071C4F202022C6091421AD14FF60051DA
:101B8000CFF6FF71695855F80E201143C9071ED1D1
:101B900016E046F20802C5F602021368DA0716D10B
:101BA0002A6840F61F739A438968114341EA0C0181
:101BB0000AE046F20801C5F602010968C90706D124
:101BC000296840F61F72914329600021C5E7002172
:101BD000C3E70000000000002DE9F04381B00022BF
:101BE000009290F85C20012A01D10221C6E202682D
:101BF000012380F85C3093685B0700F1B78246F2FE
:101C0000083C4FF6FF78C5F6020CC0F20F08ACF5A1
:101C1000427E0B68724512D0002B10D493FAA3F5C4
:101C200013EA080FB5FA85F54FF0010608BF9D0EBF
:101C300005F01F0506FA05F5D6693543D5614D68EF
:101C40001F27C3F38463C5F3012605F01F05AF40CA
:101C500002EB8606AB40346BBC432343336393688B
:101C6000946803F0040304F008041B1940F0088191
:101C70000B6807268D687245C3F34064C3F30453B1
:101C800002EB840406FA03F6676905FA03F327EA10
:101C9000060643EA060363610FD041F20003C5F66E
:101CA00000431B6803F07043B3F1805F14D14B69AC
:101CB000D4680E2505EA54041AE04FF604544B6923
:101CC000CFF6FF7406255CF8044005EA940403FA95
:101CD00004F94FF000430DE0D4684B69D568E40681
:101CE0004FEA550502D405F00E0401E005F00804A2
:101CF000A34099460F69042F25D1724553D0136E26
:101D00000C6803F0F845A3069D4203D1146E24F03D
:101D100000441466546E04F0F8449C4203D1546E9F
:101D200024F000445466946E04F0F8449C4203D1BD
:101D3000946E24F000449466D46E04F0F8449C42FF
:101D400000F082809CE002F160060C6804F0F84428
:101D5000724556F8275005F00045254408BF49EA6A
:101D6000040543EA050346F827300B6971D091F862
:101D700021400D7E56F8237027F00047012C08BF44
:101D800007F100476C1EB4FA84F446F82370630927
:101D90000C69DB02156904F01F0425F4F045A3402B
:101DA0002B4313616CE04FF65853CFF6FF735CF88A
:101DB0000330136E0C68C3F3846314EA080F94FABB
:101DC000A4F5B5FA85F508BFC4F38465AB4203D129
:101DD000136E23F000431366536E536E0C6814EABF
:101DE000080F94FAA4F5B5FA85F508BFC4F3846525
:101DF000C3F38463AB4203D1536E23F000435366B5
:101E0000936E936E0C6814EA080F94FAA4F5B5FA71
:101E100085F508BFC4F38465C3F38463AB4203D183
:101E2000936E23F000439366D36ED36E0C6814EA6E
:101E3000080F94FAA4F5B5FA85F508BFC4F38465D4
:101E4000C3F38463AB421BD1D36E23F00043D3664C
:101E500016E0ACF52A72CC6952F8235025F0807553
:101E60002C4342F823400B6991F8204052F823504C
:101E7000012C25F0007508BF05F1007542F82350CC
:101E800002689368DB0740F02C810B68CD687245CF
:101E900003EA080105F018060BD0D2F8C04028FA72
:101EA00006F624EA010106EA03042143C2F8C01041
:101EB0000DE04FF6A85428FA06F6CFF6FF741E4040
:101EC0005CF8047027EA010131434CF8041000214A
:101ED000C4F2527101F52D04A54240F0FF8046F294
:101EE0000004C5F60204A2422BD042F20014C4F250
:101EF0000204A2423AD042F20004C4F20204A24216
:101F00004CD11F24C1F2F044A34234DD40F2FF74EF
:101F1000C2F63064A3425BDD40F60004C2F63064D2
:101F2000A34200F0AC8041F20004C3F26024A3425B
:101F300000F0A0800024C4F22134A34200F0B98054
:101F4000A2E01F21C1F2F0418B4229DC0721C0F63B
:101F500090418B425EDC0221C0F230418B4257D06F
:101F60000421C0F660018B4214D097E01F21C1F21A
:101F7000F0418B4226DC0721C0F690418B4237DCD2
:101F80000221C0F230418B4242D00421C0F66001F0
:101F90008B4279D14021C1F620118AE0002188E0EE
:101FA00040F2FF71C2F630618B4246DC2021C1F263
:101FB000F0418B4227D040F20041C2F600218B4213
:101FC00011D06BE040F2FF71C2F630618B4245DC0C
:101FD0002021C1F2F0418B4215D040F20041C2F6FF
:101FE00000218B4250D140F60001C2F6306160E022
:101FF0000821C0F690418B421BD01021C1F2C001D4
:102000008B4211D040E040F20021C2F2B05150E0CA
:1020100001214EE00821C0F690418B4209D01021E9
:10202000C1F2C0018B4239D140F20011C2F28011DD
:102030003FE08021C1F650513BE040F60001C2F67E
:1020400030618B421BD042F20001C3F290618B429F
:1020500024D144F20001C3F6C0212AE040F6000179
:10206000C2F630618B420AD041F20001C3F2602116
:102070008B4209D142F20001C3F2906119E041F2B2
:102080000001C3F2602114E000240021C4F684346E
:10209000A34204BF0021C4F6B8710AE044F2000470
:1020A0000021C3F6C024A34204BF48F20001C3F6D6
:1020B000F061724512D091FAA1F44FF6C135B4FA2D
:1020C00084F4C0F20A05294208BF8C0E04F01F01F7
:1020D000012404FA01F1D4692143D161B3F1FF3F36
:1020E00001DD002147E042F2000142F20016C4F295
:1020F0000201C4F2020601F5807401F54275A242A4
:10210000644608BF2C468A4208BF2C4642F48075BC
:10211000B542246822D18D68D1F808112943C90736
:1021200024D1002104F0E075CCF252718B4208BF3B
:1021300014F4000126D00021CCF221318B4249D188
:102140000021B1EB156F45D1724514D1DCF80010B8
:1021500021F0E071294341F080714EE04FF60051CB
:10216000CFF6FF715CF80110C907DAD0016E41F0BB
:10217000200101660121002280F85C20084601B0A0
:10218000BDE8F0837245ACD1DCF8001042F6635232
:1021900021F0E071C0F23E52294341F40001CCF835
:1021A000001040F22001C2F2000109688909A1FB78
:1021B00002129109022202EB4101009100990029CB
:1021C0008FD0009901390091009900294FF000014A
:1021D000F7D1D0E772454FF00001CCD10022CCF608
:1021E0008432934208BF14F48002C4D1DCF800109A
:1021F00021F0E071294341F48001CCF8001070E730
:10220000B0B582B0044600284FF00000019040D0E5
:10221000206E30B9204600F033F90020606684F863
:102220005C002068816889004FF6C071C5F6FF71B7
:1022300002D582680A4082608268D2001CD482681B
:1022400001F18051114042F6635241F080518160AA
:1022500040F22001C0F23E52C2F200010968890931
:10226000A1FB0212012101EB921100BF0191019922
:1022700011B101990139F9E78168C9000BD4216EC8
:10228000012541F010012166616E41F00101616696
:1022900002E00125EEE000258168226E02F01002C6
:1022A00001F004018918216E36D121F4817146F2C2
:1022B000000C023121668168C5F6020CC90722D1E3
:1022C00042F2001240F48071C4F20202914242F2E2
:1022D0000001C4F202012DD18A68D1F808311A43F5
:1022E000D20710D101F580729042624608BF0A46BB
:1022F000884208BF02466168D2F8083323F47C1391
:102300001943C2F80813617EE26B604542EA41322C
:1023100006D0A16811431BE041F010000125A8E0A0
:10232000D4E9021308290AD00C290AD01C290AD1A1
:1023300010210BE0DCF80820D207D3D0E3E700211E
:1023400004E0082102E0182918BF002119431143B5
:1023500094F82020012A41EA024206D1616A002352
:10236000CFF6FE7303EB41410A43A16A21B101F4A8
:102370007871E36A19430A43604508D04CF20303BD
:10238000C168CFF6F07319401143C1600EE044F20A
:102390000703DCF80C10CFF6F07319401143C1604D
:1023A0000169626B21F040611143016181688268BB
:1023B00001F0040102F0080289184BD1217E60452A
:1023C0004FEA813102D0226B114303E094F83820A8
:1023D00041EA4201C26844F203039A431143C160D7
:1023E00094F84410012917D14FF61E016045CFF62D
:1023F000004115D0026902EA010E0121D4E912233D
:10240000CFF6FF7101EB024143EA0E02236D114347
:10241000626D1943114310E0016921F001010CE0E4
:10242000DCF810201140D4E912231143226D194326
:10243000636D1143194341F0010101616045016978
:10244000226C21F0704141EA0201016102D0204674
:10245000FFF76EF920682169026B012922F00F0154
:1024600002D1E269013A114301630121206E61F357
:1024700001002066284602B0B0BD00000000000048
:102480002DE9F043B5B0044602A8B8210025CDE9F6
:102490003355CDE931553095FEF754F942F200013C
:1024A0002068C4F20201884202D035B0BDE8F08352
:1024B0004FF400200290022004904FF01008039582
:1024C000CDE90580CDE90700C0200B95CDE90905D0
:1024D00002A82A9504F068FC08B1FFF775FA44F2E7
:1024E000E0400025C5F60200C5F6020530AE4FF00B
:1024F000030950F8081C002741F0200140F8081C8F
:1025000050F8081C01F0200101910199016841F087
:1025100001010160016801F0010101910199016867
:1025200041F0040101600068314600F004000190B0
:102530000198202030902846CDF8C490329702F0C0
:102540003BFC05F500603146CDE93089329702F059
:1025500033FC40F644451020C2F20005C4F20200EC
:1025600028600920C5E901074FF4806028614FF415
:10257000006068614FF40050A8614FF48070EF6014
:10258000C5E9070728466F6201F012F908B1FFF7A5
:102590001BFAA565AC6335B0BDE8F0830000000010
:1025A0002DE9F041044602F0DFFC14B3054694F82F
:1025B0003500022820D140F20F462768C4F20206F7
:1025C00040F26F48B7426FF00E00C4F2020817DC09
:1025D0006F21C4F202018F4223DC3F21C4F20201C9
:1025E0008F4239DC1021C4F202018F4258D02821D9
:1025F00051E00120BDE8F08180206065012040E2CB
:1026000047451ADC40F23F41C4F202018F422ADC06
:1026100040F21041C4F202018F4241D040F2284101
:1026200039E09F21C4F202018F4225DC7021C4F2FF
:1026300002018F4234D088212DE040F29F41C4F244
:1026400002018F421FDC40F27041C4F202018F424E
:1026500026D040F288411EE04021C4F202018F42A0
:102660001ED0582117E040F24041C4F202018F42CF
:1026700016D040F258410EE0A021C4F202018F4270
:102680000ED0B82107E040F2B841C4F202018F42F7
:1026900006D040F2A041C4F202018F42394607D170
:1026A0003946386820F01E0041F8140B6FF08000A6
:1026B0000A68474500EA0200086019DC9F20C4F25E
:1026C0000200874231DC5720C4F20200874256DC08
:1026D0001020C4F20200874200F091802820C4F24A
:1026E0000200874200F08B804020C4F2020084E0A8
:1026F00045F22F40C5F6020087422BDC40F2B7407E
:10270000C4F20200874248DC40F27040C4F202008A
:10271000874274D040F28840C4F2020087426ED0F3
:1027200040F2A040C4F2020067E040F22740C4F249
:102730000200874240DCA020C4F2020087425ED043
:10274000B820C4F20200874259D040F21040C4F2CF
:10275000020052E045F26B40C5F6020087423CDCC5
:1027600045F23040C5F60200874248D045F2444069
:10277000C5F60200874242D045F258403BE058205F
:10278000C4F2020087423AD07020C4F202008742AD
:1027900035D08820C4F202002FE040F2B840C4F2E5
:1027A000020087422BD045F20840C5F6020087425E
:1027B00025D045F21C401EE040F22840C4F2020041
:1027C00087421CD040F24040C4F20200874216D03B
:1027D00040F25840C4F202000FE045F26C40C5F6EA
:1027E000020087420BD045F29440C5F602008742B2
:1027F00005D045F28040C5F60200874204D1206E24
:10280000016821F480710160386820F001003860AF
:102810003868C0070BD002F0A7FB401B0628F7D38F
:1028200020206065032084F83500012029E120681C
:10283000B04210DC6F21C4F2020188421CDC3F214F
:10284000C4F20201884232DC1021C4F20201884243
:1028500050D028214AE040451ADC40F23F41C4F202
:10286000020188422ADC40F21041C4F2020188428F
:1028700040D040F2284139E09F21C4F20201884251
:1028800025DC7021C4F20201884233D088212DE07A
:1028900040F29F41C4F2020188421FDC40F27041C5
:1028A000C4F20201884225D040F288411EE0402156
:1028B000C4F2020188421DD0582117E040F2404185
:1028C000C4F20201884215D040F258410EE0A02126
:1028D000C4F2020188420DD0B82107E040F2B841AD
:1028E000C4F20201884205D040F2A041C4F20201C4
:1028F000884259D1D4E9161202F01F023F2303FA8D
:1029000002F28A60404559DC9F21C4F202018842EC
:1029100014DC5721C4F20201884226DC1021C4F2E3
:102920000201884200F09D802821C4F20201884201
:1029300000F097804021C4F2020190E040F227416C
:10294000C4F2020188421EDCA021C4F202018842C6
:1029500000F08780B821C4F20201884200F0818033
:1029600040F21041C4F2020179E05821C4F20201A0
:10297000884276D07021C4F20201884271D0882149
:10298000C4F202016BE040F22841C4F20201884225
:1029900067D040F24041C4F20201884261D040F267
:1029A0005841C4F202015AE0D4E9161202F01F02A3
:1029B000012303FA02F24A604045A5DD45F22F41AA
:1029C000C5F60201884216DC40F2B741C4F20201AA
:1029D000884225DC40F27041C4F20201884240D0B6
:1029E00040F28841C4F2020188423AD040F2A0414C
:1029F000C4F2020133E045F26B41C5F602018842A0
:102A00001DDC45F23041C5F60201884229D045F26D
:102A10004441C5F60201884223D045F258411CE0EA
:102A200040F2B841C4F2020188421AD045F208418E
:102A3000C5F60201884214D045F21C410DE045F272
:102A40006C41C5F6020188420BD045F29441C5F6AF
:102A50000201884205D045F28041C5F60201884254
:102A60000BD1616EA26EE06E4A6030B1016821F454
:102A700080710160D4E91C014160012084F83500B7
:102A80000020002184F83410BDE8F081000000002F
:102A9000F0B190F83510022918D180B540F20F42FC
:102AA0000168C4F20202914214DC6F23C4F20203F3
:102AB000994224DC3F23C4F2020399423ADC1023FA
:102AC000C4F20203994258D0282352E08021416584
:102AD0000120704740F26F43C4F2020399421ADCAE
:102AE00040F23F43C4F2020399422ADC40F2104311
:102AF000C4F20203994240D040F2284339E09F23B8
:102B0000C4F20203994225DC7023C4F20203994205
:102B100033D088232DE040F29F43C4F20203994250
:102B20001FDC40F27043C4F20203994225D040F208
:102B300088431EE04023C4F2020399421DD058236B
:102B400017E040F24043C4F20203994215D040F22C
:102B500058430EE0A023C4F2020399420DD0B823DB
:102B600007E040F2B843C4F20203994205D040F2B4
:102B7000A043C4F20203994271D191424FF0040282
:102B800080F8352010DC6F20C4F20200814220DC86
:102B90003F20C4F20200814236DC1020C4F2020061
:102BA000814253D028204EE040F26F40C4F2020030
:102BB00081421ADC40F23F40C4F2020081422ADC2A
:102BC00040F21040C4F2020081423FD040F228405F
:102BD00039E09F20C4F20200814225DC7020C4F25B
:102BE0000200814232D088202DE040F29F40C4F2A2
:102BF000020081421FDC40F27040C4F202008142B8
:102C000024D040F288401EE04020C4F202008142FD
:102C10001CD0582017E040F24040C4F2020081422C
:102C200014D040F258400EE0A020C4F202008142CD
:102C30000CD0B82007E040F2B840C4F20200814254
:102C400004D040F2A040C4F202008142086820F0A3
:102C5000010008600021BDE88040084670470A680E
:102C600022F00E020A6045F25742C5F60202914276
:102C70000A6822F001020A600EDC45F22F42C5F616
:102C80000202914217DC45F20842C5F60202914267
:102C900026D045F21C421FE045F27F42C5F60202F3
:102CA000914211DC45F25842C5F60202914217D01A
:102CB00045F26C4210E045F23042C5F60202914204
:102CC0000ED045F2444207E045F29442C5F60202B6
:102CD000914205D045F28042C5F6020291421AD1D6
:102CE000D0E9181CD0E916E30A6822F480720A6061
:102CF00003F01F01012202FA01F1CEF80410816EE7
:102D0000CCF80410C16E31B10A6822F480720A60F6
:102D1000D0E91C124A60012180F83510026D0021B3
:102D2000002A80F8341096D0904793E70000000006
:102D30002DE9F04381B00021009140F220010446CA
:102D4000C2F2000148F2B512C1F64E32A56D096813
:102D500040F26F490068C4F20209A1FB021848451D
:102D60002E682A6815DC9F21C4F2020188422BDC00
:102D70005721C4F2020188424FDC1021C4F2020143
:102D8000884278D02821C4F20201884273D04021C1
:102D90006CE045F22F41C5F60201884227DC40F283
:102DA000B741C4F20201884243DC40F27041C4F2F0
:102DB000020188425FD040F28841C4F20201884299
:102DC00059D040F2A04151E040F22741C4F2020143
:102DD00088423DDCA021C4F2020188424BD0B821D8
:102DE000C4F20201884246D040F210413EE045F272
:102DF0006B41C5F60201884275DC45F23041C5F6EB
:102E00000201884200F0828045F24441C5F6020189
:102E100088427BD045F2584173E05821C4F2020148
:102E2000884228D07021C4F20201884223D0882130
:102E30001CE040F2B841C4F2020188421BD045F2C6
:102E40000841C5F60201884260D045F21C4158E0B5
:102E500040F22841C4F2020188420CD040F24041C5
:102E6000C4F20201884206D040F25841C4F2020185
:102E7000884240F04E84E16D082201F01F018A4033
:102E8000324200F0168140F20F43C4F2020398422E
:102E90004FF0040313DC6F27C4F20207B84200F3BB
:102EA00091803F27C4F20207B84200F3D280102776
:102EB000C4F20207B84200F0F0802827E8E0484555
:102EC00000F38C8040F23F47C4F20207B84200F39F
:102ED000C78040F21047C4F20207B84200F0DD801C
:102EE00040F22847D4E045F26C41C5F60201884221
:102EF0000CD045F28041C5F60201884206D045F269
:102F00009441C5F60201884240F003840368E16DF4
:102F100001F01F01042707FA01F6164218BF13F04B
:102F200004072CD1022707FA01F6164218BF13F046
:102F3000020762D1CA40120740F1EB8313F0080286
:102F400000F0E78340F20F42C4F2020290426FF0B9
:102F50001C0200F305836F23C4F20203984200F3BE
:102F600024833F23C4F20203984200F369831023B1
:102F7000C4F20203984200F0BB832823B2E3190491
:102F80006E605ED4990600F1D88340F20F41C4F21E
:102F9000020188426FF0080100F3F5826F22C4F24B
:102FA0000202904200F30E833F22C4F202029042DA
:102FB00000F34D831022C4F20202904200F0BA8363
:102FC0002822B1E39F27C4F20207B84251DC7027E0
:102FD000C4F20207B84260D0882759E040F29F4708
:102FE000C4F20207B8424BDC40F27047C4F2020759
:102FF000B84252D040F288474AE019046E6000F1AE
:103000009B82990600F1CA8340F20F41C4F202018B
:1030100088426FF0140100F3E2826F22C4F20202D0
:10302000904200F31B833F22C4F20202904200F35D
:1030300087831022C4F20202904200F0A683282265
:103040009DE3D80300F17983A16C002940F0A983A6
:103050005FE34027C4F20207B8421ED0582717E0AA
:1030600040F24047C4F20207B84216D040F2584737
:103070000EE0A027C4F20207B8420ED0B82707E03E
:1030800040F2A047C4F20207B84206D040F2B84767
:10309000C4F20207B84218BF082307681F4208D0CD
:1030A000036823F004030360AA60626D42F001022A
:1030B000626501228A4032426FD040F20F43C4F26F
:1030C0000203984210DC6F23C4F2020398421CDC16
:1030D0003F23C4F20203984232DC1023C4F20203FD
:1030E000984251D028234AE048451ADC40F23F4339
:1030F000C4F2020398422ADC40F21043C4F20203F5
:10310000984241D040F2284339E09F23C4F20203A1
:10311000984225DC7023C4F20203984234D08823FD
:103120002DE040F29F43C4F2020398421FDC40F2BC
:103130007043C4F20203984226D040F288431EE056
:103140004023C4F2020398421ED0582317E040F2F5
:103150004043C4F20203984216D040F258430EE0B6
:10316000A023C4F2020398420ED0B82307E040F235
:10317000B843C4F20203984206D040F2A043C4F21E
:103180000203984240F0E081436903F0800323B1D9
:10319000AA60626D42F00202626504228A403242F5
:1031A0006FD040F20F43C4F20203984210DC6F2349
:1031B000C4F2020398421CDC3F23C4F2020398428B
:1031C00032DC1023C4F20203984251D028234AE093
:1031D00048451ADC40F23F43C4F2020398422ADC1D
:1031E00040F21043C4F20203984241D040F2284317
:1031F00039E09F23C4F20203984225DC7023C4F215
:103200000203984234D088232DE040F29F43C4F259
:10321000020398421FDC40F27043C4F2020398425A
:1032200026D040F288431EE04023C4F202039842B5
:103230001ED0582317E040F24043C4F202039842E4
:1032400016D040F258430EE0A023C4F20203984285
:103250000ED0B82307E040F2B843C4F2020398420C
:1032600006D040F2A043C4F20203984240F07281BB
:10327000036803F0020323B1AA60626D42F0040206
:103280006265102202FA01F131427DD040F20F4214
:10329000C4F2020290424FF0080210DC6F23C4F225
:1032A000020398421CDC3F23C4F20203984232DC42
:1032B0001023C4F20203984251D028234AE0484523
:1032C0001ADC40F23F43C4F2020398422ADC40F287
:1032D0001043C4F20203984241D040F2284339E03F
:1032E0009F23C4F20203984225DC7023C4F2020338
:1032F000984234D088232DE040F29F43C4F2020369
:1033000098421FDC40F27043C4F20203984226D078
:1033100040F288431EE04023C4F2020398421ED0CC
:10332000582317E040F24043C4F20203984216D0FB
:1033300040F258430EE0A023C4F2020398420ED09C
:10334000B82307E040F2A043C4F20203984206D03B
:1033500040F2B843C4F20203984218BF0422036843
:10336000134211D0A96001684903016806D4C90558
:1033700006D4016821F00801016001E0080352D47D
:10338000216C09B120468847E06D00F01F01202024
:1033900000FA01F2324200F0A68040F20F432068AA
:1033A000C4F2020398424FF0100310DC6F27C4F2FE
:1033B0000207B8421CDC3F27C4F20207B84236DCE1
:1033C0001027C4F20207B84255D028274EE04845DE
:1033D0001ADC40F23F47C4F20207B8422EDC40F24A
:1033E0001047C4F20207B84245D040F228473DE0FA
:1033F0009F27C4F20207B84229DC7027C4F20207F3
:10340000B84238D0882731E040F29F47C4F2020723
:10341000B84223DC40F27047C4F20207B8422AD017
:1034200040F2884722E0A16C0029ABD1ACE74027ED
:10343000C4F20207B8421ED0582717E040F24047B6
:10344000C4F20207B84216D040F258470EE0A02757
:10345000C4F20207B8420ED0B82707E040F2A047F6
:10346000C4F20207B84206D040F2B847C4F20207DD
:10347000B84218BF022307681F4234D0AA6094F8EC
:103480003520042A026816D122F016020260426931
:1034900022F080024261226C0AB9A26C1AB1026861
:1034A00022F0080202603F208840A860012084F8D2
:1034B0003500216D27E1510301680CD4C9050ED4F4
:1034C000016821F010010160012084F8350000201E
:1034D00084F8340003E0080301D4616C00E0E16B80
:1034E00009B120468847606D002800F01281606DA8
:1034F000C0071CD0042084F8350020684FEA9821CA
:10350000026822F001020260009A013200928A42AF
:1035100002D80268D207F7D10068C0074FF0030055
:1035200008BF012084F83500002084F83400E16CE5
:10353000002940F03681ECE0D80300F12F81616C66
:10354000002940F02E81E4E003680023002B7FF483
:103550001FAE22E603680023002B7FF48DAE90E6B9
:1035600048454FDC40F23F43C4F20203984200F367
:10357000828040F21043C4F20203984200F0B88007
:1035800040F22843AEE048454BDC40F23F42C4F2F3
:103590000202904278DC40F21042C4F202029042F1
:1035A00000F0C88040F22842BEE09F23C4F202032C
:1035B000984272DC7023C4F20203984200F09880B3
:1035C00088238FE09F22C4F2020290426CDC7022BA
:1035D000C4F20202904200F0AD808822A4E0484587
:1035E00069DC40F23F42C4F20202904200F3AF8035
:1035F00040F21042C4F20202904200F0C68040F253
:103600002842BCE040F29F43C4F20203984261DCCE
:1036100040F27043C4F20203984269D040F28843FA
:1036200060E040F29F42C4F20202904274DC40F239
:103630007042C4F2020290427CD040F2884273E0B1
:103640004023C4F20203984252D058234AE0402259
:10365000C4F2020290426DD0582265E09F22C4F26B
:10366000020290427CDC7022C4F20202904200F01E
:103670008C80882283E040F24043C4F202039842E7
:1036800036D040F258432DE040F24042C4F20202EC
:1036900090424FD040F2584246E0A023C4F20203C9
:1036A000984225D0B8231DE0A022C4F20202904225
:1036B00040D0B82238E040F29F42C4F20202904269
:1036C00055DC40F27042C4F2020290425DD040F2FA
:1036D000884254E040F2A043C4F20203984207D06B
:1036E00040F2B843C4F20203984218BF6FF00E02D2
:1036F00003681A400260012000FA01F16960606508
:1037000084F83500E16C00294FF0000084F83400A3
:1037100047D101B0BDE8F08340F2A042C4F20202FA
:10372000904207D040F2B842C4F20202904218BF61
:103730006FF00401026811400160216C89BBE8E769
:103740004022C4F2020290421FD0582217E040F2F9
:103750004042C4F20202904217D040F258420EE0BA
:10376000A022C4F2020290420FD0B82207E040F239
:10377000A042C4F20202904207D040F2B842C4F222
:103780000202904218BF6FF00A0102681140016006
:10379000012084F83500002084F83400E16B002912
:1037A000B7D0204601B0BDE8F04308470000000054
:1037B0002DE9F041044601F0D7FBECB140F26F482F
:1037C00005462068C4F20208404518DC9F21C4F277
:1037D000020188422EDC5721C4F20201884254DCE7
:1037E0001021C4F2020188427ED02821C4F20201D5
:1037F000884279D0402172E00120BDE8F08145F295
:103800002F41C5F60201884227DC40F2B741C4F2DD
:103810000201884245DC40F27041C4F20201884254
:1038200062D040F28841C4F2020188425CD040F28A
:10383000A04154E040F22741C4F20201884240DC3A
:10384000A021C4F2020188424ED0B821C4F2020184
:10385000884249D040F2104141E045F26B41C5F643
:103860000201884200F3B88045F23041C5F60201FA
:10387000884200F0C38045F24441C5F60201884207
:1038800000F0BC8045F25841B4E05821C4F2020176
:10389000884229D07021C4F20201884224D08821B4
:1038A0001DE040F2B841C4F2020188421CD045F24A
:1038B0000841C5F60201884200F0A08045F21C4193
:1038C00098E040F22841C4F2020188420CD040F254
:1038D0004041C4F20201884206D040F25841C4F28D
:1038E0000201884240F0DE80022184F83510002178
:1038F00084F83410016821F001010160206801683A
:10390000C9070CD001F030FB401B0628F6D320205D
:103910006065032084F835000120BDE8F08148F29D
:103920003F0204F108070168CFF610621140666992
:103930008CCF1143D4F818C01943E3693943276A7F
:103940000E43616A3343042943EA070343EA0C0345
:1039500003D1D4E90B7637433B436568A5F12906CB
:10396000292E00F2A1800127DFE806F015151515B4
:1039700015159E9E9E9E9E9E9E9E9E9E9E9E9E9E79
:103980009E9E151515159E9E9E9E15159E9E9E9E8D
:103990009E9E15151515002F18BF43F4801304299A
:1039A0000360426922F0070241EA020140F0908080
:1039B000D4E90A53002B41EA050100F08980BCF5E7
:1039C000005F5FD0BCF1000F68D1022D74D0012DD3
:1039D0005ED0002D70D072E045F26C41C5F6020158
:1039E00088420BD045F28041C5F60201884205D0DD
:1039F00045F29441C5F60201884253D104F1080E04
:103A0000022184F83510002184F834100168A3697C
:103A10009EE80450A2F18005E769B5FA85F566696C
:103A20006D09402A4FEA853543EA07026FF310110A
:103A300042EA060208BF102541EADC0142EA0E0212
:103A40002943236A41EAD2014AF6F832CAF2FD72EA
:103A50004CF6CD470244CCF6CC4741EA1311A2FB09
:103A6000072301606FF0030000EA9300E065204641
:103A7000FDF71AFFE16D012201F01F0102FA01F1C9
:103A8000416030E0032D1AD8DFE805F00A160A027B
:103A9000A3F1C072B2FA82F2520911E0032D0AD2E8
:103AA00001220DE0402033E725F00302743AB2FA18
:103AB00082F257096FE702D1C3F3006200E00022EF
:103AC00032B140206065012084F83500BDE8F08106
:103AD00041612046FDF7E8FEE16D3F2201F01F0144
:103AE00002FA01F181602068404519DC9F21C4F28F
:103AF0000201884231DC5721C4F20201884256DCBF
:103B00001021C4F20201884200F092802821C4F200
:103B10000201884200F08C804021C4F2020184E05E
:103B200045F22F41C5F6020188422BDC40F2B74135
:103B3000C4F20201884248DC40F27041C4F2020142
:103B4000884275D040F28841C4F2020188426FD0A9
:103B500040F2A041C4F2020167E040F22741C4F202
:103B60000201884240DCA021C4F2020188425FD0F9
:103B7000B821C4F2020188425AD040F21041C4F286
:103B8000020152E045F26B41C5F6020188423CDC7D
:103B900045F23041C5F60201884249D045F2444120
:103BA000C5F60201884243D045F258413BE0582116
:103BB000C4F2020188423BD07021C4F20201884263
:103BC00036D08821C4F202012FE040F2B841C4F29D
:103BD000020188422CD045F20841C5F60201884214
:103BE00026D045F21C411EE040F22841C4F20201F9
:103BF00088421DD040F24041C4F20201884217D0F1
:103C000040F25841C4F202010FE045F26C41C5F6A2
:103C1000020188420CD045F29441C5F60201884267
:103C200006D045F28041C5F60201884240F0D080BE
:103C300045F2574C45F6FC01C5F6020CC5F60201EB
:103C400060450EDC45F22F43C5F60203984217DCAF
:103C500045F20843C5F60203984226D045F21C43BC
:103C60001FE045F27F43C5F60203984211DC45F29E
:103C70005843C5F60203984217D045F26C4310E052
:103C800045F23043C5F6020398420ED045F2444354
:103C900007E045F29443C5F60203984205D045F289
:103CA0008043C5F60203984250D100F0FC034CF665
:103CB000CD47083BCCF6CC47A3FB0737A1F1FC0569
:103CC000A1F17C063B0905EB83022266A26803F0A2
:103CD0001F030127802A666607FA03F2A26601D154
:103CE000002262606268A56ED4E91876D3B2013A08
:103CF000072A3B60756015D85E1E072E62D86045A6
:103D000001F1440213DC45F22F47C5F60207B84221
:103D10003CDC45F20847C5F60207B8424BD045F2F5
:103D20001C4744E000206067C4E91B0050E045F2F6
:103D30007F47C5F60207B84231DC45F25847C5F661
:103D40000207B84237D045F26C4730E000F0F80384
:103D50004AF6AB27103BCAF6AA27A3FB073740F267
:103D60000F43C4F2020308253E09984203F1AA0258
:103D7000334688BF05EB171340F600059042C4F2A6
:103D8000020528BF334605F180069CE745F230471F
:103D9000C5F60207B8420ED045F2444707E045F2A7
:103DA0008047C5F60207B84205D045F29447C5F6EC
:103DB0000207B84213D101EB8300E06601202267BD
:103DC000B040606704F16C02002307CA03604A60D8
:103DD00000206065012184F83510BDE8F08140F6CF
:103DE0000000C4F2020000F1FC0100F5A072E2E75D
:103DF000B0B5044601F0B8F840F2A4010546C2F29D
:103E00000041621C097818BF0C4400BF01F0ACF8F7
:103E1000401BA042FAD3B0BD90F89830013B012B73
:103E20000BD80068836D0B420CD0836D0B408B4226
:103E30000CD1C36D43F0020309E000F19C010120A5
:103E4000022221E0C36D43F0010300E00323C365B8
:103E50008B0504D5D0F8E0301343C0F8E0304B05B3
:103E600004D5D0F8E4301A43C0F8E4204FF6FF72CE
:103E7000436DC3F6CF720A401A4342658A0F4AF671
:103E800014010020C4F200010B681A430A60704755
:103E9000B0B5044690F8980002281AD12068D0F8EE
:103EA000C03013F07C5F19D0D0F8C4309B021AD414
:103EB000D0F8C400C0F3044520462B46FDF7C8FDEA
:103EC00020680121A940C0F8D0100020C4F8941047
:103ED000B0BDD4F89C0040F0080008E0D4F89C0085
:103EE00040F0200003E0D4F89C0040F40070C4F8D7
:103EF0009C000120B0BD00007047000000000000E1
:103F000090F89830012B0DD1012913D0E9B9006840
:103F1000D0F8F01021F07C5141EA0261C0F8F010B5
:103F200000207047D0F89C1041F00401C0F89C10AC
:103F3000012070470068D0F8A01021F0FE4141EA4E
:103F40000261C0F8A010002070470068D0F8B010DF
:103F500021F0FE4141EA0261C0F8B0100020704734
:103F600090F89820013A012A0BD880B50A68002AF7
:103F7000CA680ED00B69072A43EA427E16D18B69C4
:103F800019E0D0F89C1041F00201C0F89C1001200B
:103F90007047072A18D10A69D1E906C3120442EA18
:103FA000032242EA0C0242F0605217E0D1F808C046
:103FB0004B6943EA8C73006F496800EBC10240F81B
:103FC00031E05360002080BD8B68D1E904CE9B07AF
:103FD00043EAC26242EA0C4242EA0E024968C06EFB
:103FE00040F82120002080BD90F898C0BCF1010F5E
:103FF0000DD19200006842EA0111DDF800C041EAEB
:10400000430141EA0C01C0F8801000207047D0F84D
:104010009C1041F00401C0F89C1001207047000082
:1040200050B310B5044690F89800022826D12068B5
:10403000816941F0010181618169C90705D134219C
:10404000013922D08269D207FAD0816921F01001AA
:1040500081618169090706D5342100BF013914D077
:1040600082691207FAD4816941F00201816100205E
:10407000C4F8940001200FE001207047D4F89C00A0
:1040800040F00800C4F89C0008E0D4F89C0040F020
:104090000100C4F89C00032084F898002068C16DDA
:1040A00021F00301C165204600F056FC0020C4F851
:1040B0009C0084F8980010BD7047000000000000CC
:1040C000890158BF70470068816921F00101816151
:1040D000704700000000000070B590F89850022D65
:1040E00011D1402914D10468D4F8A05015F4FE0F62
:1040F0002BD0D4F8A4506D062CD0D4F8A450ED01E8
:1041000030D4002531E0D0F89C1041F0080125E0C2
:1041100041290FD10468D4F8B05015F4FE0F14D023
:10412000D4F8B4506D0615D0D4F8B450ED0126D4AF
:10413000002527E0056D8D4207D900F17C04D0F8F9
:1041400054E04FF0000C0D4626E0D0F89C1041F0F2
:10415000200103E0D0F89C1041F48071C0F89C105D
:10416000012070BDD4F8A050ED0FD4F8A440C4F3E2
:10417000052404EB050E00F17404456C0BE0D4F843
:10418000B050ED0FD4F8B440C4F3052404EB050E91
:1041900000F17804C56CF44605FB0EF6246854F86B
:1041A000265015F08045556054F826E02EF0604505
:1041B00008BFCEF38A4504EB860E156054F82650EE
:1041C00005F00055956054F8264004F00044146151
:1041D000BEF80440D461BEF8064014F00F04D46069
:1041E000DEF8044004F480145461DEF8044004F462
:1041F000001494619EF8074004F07F041462DEF816
:1042000004404FEAD47454620ED00EF108054EF605
:10421000F46E0024C0F6000E2E5D1E550134D668E3
:104220001EF80660B442F7D3402904D10068C0F8F4
:10423000A8C0002070BD412904D10068C0F8B8C0F2
:10424000002070BD1F2907D80068012202FA01F181
:10425000C0F89810002070BD006801F01F01012215
:1042600002FA01F1C0F89C10002070BD00000000AF
:1042700070470000000000002DE9F04F89B00446AF
:104280004AF61000C4F2000001684AF61400C4F2B5
:1042900000000268206802EA0108056DD0F8549019
:1042A000036D0293436D0193036D0493436D039378
:1042B000036D0893436D0793036D0693436D059358
:1042C000D0F854A0D0F850B05FEACA530ED51BF412
:1042D00080710BD04FF4807101654AF61001002007
:1042E000C4F2000108602046FFF7C2FF05EA090694
:1042F0004AF610095FEA4A50C4F200094FEA88778B
:1043000011D51BF480600ED02068D0F8DC10D0F8F6
:10431000E42011404FF4806202650020C9F80000DB
:10432000204600F0B1FCDDE9011000EA010506F4C9
:10433000704657B120680021016508F00300C9F8F4
:10434000000020463946FFF7D7FDDDE9031000EAFB
:10435000010705F00F0546B12068314606650020CB
:10436000C9F80000204600F097FC07F0F00645B1C0
:104370002068294605650020C9F80000204600F0A5
:104380003FFC46B12068314606650020C9F80000B0
:10439000204600F041FC5FEA0A500CD51BF4006097
:1043A00009D020684FF4006101650020C9F80000C1
:1043B000204600F075FC5FEA8A5011D51BF40070AE
:1043C0000ED02068D0F8D810D0F8E02011404FF47B
:1043D000007202650020C9F80000204600F058FC79
:1043E0005FEA0A300CD51BF4002009D020684FF496
:1043F000002101650020C9F80000204600F0FCFB08
:104400005FEACA300CD51BF4803009D020684FF425
:10441000803101650020C9F80000204600F030FC22
:104420005FEA4A30DDE9051000EA01050CD51BF40E
:10443000802009D020684FF4802101650020C9F850
:104440000000204600F018FC5FEA8A30DDE9071022
:1044500000EA010005F060710FD51BF400320CD0AA
:1044600022684FF4003313650022C9F80020D4F805
:104470009C2042F08002C4F89C2000F0715539B1B4
:10448000206801650020C9F800002046FFF718FEEB
:104490004DB1206805650020C9F80000D4F89C00E3
:1044A0002843C4F89C002068A9F50161884209D01E
:1044B000D4F89C00002867D0204609B0BDE8F04F32
:1044C000FFF7FABD606881688907F1D0016A426A26
:1044D000036A476A114003EA070202F03005D0F888
:1044E0002080D0F82490D0F820B0D0F824A0026A20
:1044F000089211F00F01426A0792466A026A069218
:1045000003D00162204600F0ABFB08EA09072DB199
:10451000606829460562204600F0AAFB70060BEA97
:104520000A0607F4C0750ED5069810F040000AD0B0
:1045300060684023C16BC26B090C02F03F0203624A
:10454000204600F091FBDDE9071000EA010706F4C0
:10455000FC462DB1606829460562204600F07CFBD0
:1045600007F4F02036B161680E62D4F89C10314334
:10457000C4F89C1000289BD061680862D4F89C1095
:104580000843C4F89C0093E709B0BDE8F08F000031
:1045900040B32DE9F04F83B04AF200080446C4F25C
:1045A00000080068404502D108F58070606094F80A
:1045B000980028B9002084F89900204600F038FAC5
:1045C0002068816921F01001816100F0CDFC054671
:1045D00020688169090707D500F0C6FC401B0B283D
:1045E000F6D312E001207047816941F00101816139
:1045F00000F0BAFC054600BF20688169C90711D1E7
:1046000000F0B2FC401B0B28F6D30120D4F89C101C
:104610000843C4F89C00032084F89800012003B0EC
:10462000BDE8F08F816941F002018161217C8269DE
:1046300022F04002012918BF40328261617C826908
:1046400022F48042012908BF02F580428261A17CE8
:10465000826922F48052012918BF02F580528261DA
:10466000816921F44073D4E902120B4383618369A9
:1046700023F0A4038361036923F0100303619AB15B
:10468000012A0DD0022A09D08369032A43F080034E
:104690008361036943F01002026105D1202200E02A
:1046A000042283691A438261D4E90572E369561EC4
:1046B0006FF0FF02256A02EB0323B1F5407F43EA66
:1046C0004663A5F1010646EA030640F20003CFF671
:1046D000FF7303EB074746EA0701C16110D1D4E934
:1046E0000B65D4E90917013F02EB06226FF00F06B4
:1046F0003A4306EB05173A4303EB01411143C1600E
:10470000236E2BB1616ED0F8C0201143C0F8C010E9
:10471000E16DCDE90113D9424EF67461C0F6000196
:1047200009D0D0F8C820A36E22F0070251F8233038
:104730001A43C0F8C820D4F840A0BAF1000F09D03D
:10474000D0F8BC20636C22F0070251F823301A43E2
:10475000C0F8BC20D4F848C0BCF1000F0AD0D0F893
:10476000BC20E36C22F0700251F8233042EA0312BD
:10477000C0F8BC20D4F850B0BBF1000F0AD0D0F87C
:10478000BC20636D22F4E06251F8231042EA01215B
:10479000C0F8BC10404504D161688A6822F0030269
:1047A0008A600021C4F89410C4F89C10012184F898
:1047B000981004F13409D0F884104FF6FC7291433C
:1047C000656C99E80C02009541EA8201C0F88410FA
:1047D000D0F8841021F47F0141EA0341C0F884102D
:1047E0009918D0F888306FF38F0343EA8103C0F83B
:1047F0008830D0F8883023F4FE0343EA0943C0F838
:10480000883001EB4903D0F8A0606FF38F0646EAC9
:104810008306C0F8A060D0F8A06026F4FE0646EA41
:104820000A46C0F8A06005FB0A36D0F8B0306FF336
:104830008F0343EA8603C0F8B030D0F8B03023F4D9
:10484000FE0343EA0C43C0F8B030E36CD0F8AC5040
:104850006FF38F0503FB0C6645EA8605C0F8AC5084
:10486000D4F8548008FB0B65D0F8F0606FF38F0626
:1048700046EA8506C0F8F060D0F8F0E0A66D2EF4A8
:104880007C1747EA0647C0F8F070F70007EB85078A
:10489000D0F8C0506FF38F052F43C0F8C070D0F828
:1048A000C070009D27F47C1705FB0AF5DDF804A015
:1048B00003FB0C5347EA0A47C0F8C0704AF20007EE
:1048C000D0F8C0E0C4F20007DDF808C007F5406783
:1048D00007EB820207EB81012EF07C5747EA0C6759
:1048E000C0F8C07001EBC90008FB0B372167A16E4F
:1048F00000EB8505606700EB8303E266C4E91E53A5
:104900000AFB01F300EB87000CFB01F1C4F8800007
:1049100000EBC600C4F8840000EB8300C4F88800F4
:1049200000EB81004DF2FC31C4F20001C4F89000AC
:10493000884201D9202069E6824208D2002000BFC7
:1049400042F8040BD4F890108A42F9D367E60020AD
:1049500003B0BDE8F08F000010B54DF200410068D3
:10496000C4F20001884226D04AF20041C4F200019C
:1049700088423BD04AF20001C4F20001884218BFCD
:1049800010BD40F20810C2F2004001680139016018
:1049900007D144F2EC40C5F60200016821F48071B1
:1049A000016040F600400321C5F6020000F07CF9EA
:1049B0001524132035E040F20810C2F200400168CF
:1049C0000139016007D144F2EC40C5F602000168EC
:1049D00021F48071016040F600404FF44051C5F66B
:1049E000020000F061F9A0249F201AE040F20810B4
:1049F000C2F2004001680139016007D144F2EC4085
:104A0000C5F60200016821F48071016040F60040A3
:104A10006021C5F60200A0F5006000F045F91624FB
:104A2000142000F04DFB2046BDE8104000F048BBCC
:104A3000B0B5B6B0044602A8B8210025CDE934557A
:104A4000CDE932553195FBF77DFE4DF200412068EE
:104A5000C4F20001884240D04AF20041C4F2000191
:104A6000884272D04AF20001C4F20001884240F04C
:104A7000BE80002003904FF4004002904FF0805021
:104A80001D9002A802F090F908B1FCF79DFF40F2DA
:104A9000081144F2E040C2F20041C5F602000A6883
:104AA000002A02F101020A6008D1C16841F4807154
:104AB000C160C16801F480710191019901681524F8
:104AC00041F0080101600068132500F00800019022
:104AD000019803203190092132E04FF40040029008
:104AE0004FF080501D9002A8039502F05DF908B1C7
:104AF000FCF76AFF40F2081144F2E040C2F20041C4
:104B0000C5F602000A68002A02F101020A6008D113
:104B1000C16841F48071C160C16801F48071019184
:104B200001990168A02441F00801016000689F25F7
:104B300000F008000190052101984FF44050319099
:104B400040F60040C5F6020038E0002003904FF424
:104B5000004002904FF080501D9002A802F024F90E
:104B600008B1FCF731FF40F2081144F2E040C2F214
:104B70000041C5F602000A68002A02F101020A603B
:104B800008D1C16841F48071C160C16801F48071CD
:104B9000019101990168162441F002010160006849
:104BA000142500F00200019001986020319040F639
:104BB0000040C5F602000921A0F50060359131A939
:104BC000022232920022CDE9332200F0F5F80021D2
:104BD0000022284600F098FA284600F085FA0021C5
:104BE0000022204600F090FA204600F07DFA36B010
:104BF000B0BD000000000000704700000000000091
:104C000040F6B051C2F20041884218BF704708F028
:104C100053BE0000000000007047000000000000CC
:104C200090F8981001290CD1022180F898100168A1
:104C30008A6922F001028A610021C0F89C100846AE
:104C40007047D0F89C1041F00401C0F89C1001207E
:104C500070470000000000007047000000000000E6
:104C600070470000000000007047000000000000D6
:104C700070470000000000007047000000000000C6
:104C800070470000000000007047000000000000B6
:104C900070470000000000007047000000000000A6
:104CA0007047000000000000002908BF70472DE990
:104CB000F04F81B000F1264242F2004702F1FF724C
:104CC0008305C5F602070A26B84243EA922208BFC6
:104CD0000926082A40F2040B38BF1646C5F6000B19
:104CE00000220096002700264FF00F0C24E000BFA2
:104CF0006FF00304032304EA560405689340044458
:104D00001D43056007F01C050CFA05FE256A25EA1F
:104D10000E052562C5689D43C560456825EA0A05FC
:104D20004560856825EA030383600136043731FA5C
:104D300006F302F102023BD0012303FA06FA1AEA53
:104D40000108F2D040F2084326F00305C5F600033F
:104D500007F00C0E0CFA0EF9ED58009B05EA090558
:104D600003FA0EF39D42C3D1DBF87C304FF0B04420
:104D700023EA0803CBF87C30DBF8803023EA080311
:104D8000CBF88030DBF8003023EA0803CBF80030A2
:104D90002568B30825EA0805256040F20844C5F6F1
:104DA000000454F8235025EA090544F823509FE7EE
:104DB00001B0BDE8F04F70472DE9F04F82B00C68AC
:104DC000002C00F0C58000F1264242F2004502F1BD
:104DD000FF728305C5F602050A27A84243EA92221C
:104DE00008BF0927082A40F2040E38BF1746C5F647
:104DF000000E002200974FF0030C0026002709E068
:104E000001370C6834FA07F306F1020602F10402D6
:104E100000F09E80012303FA07FA14EA0A09EFD092
:104E2000D1F804B00BF00304A4F10108B8F1010FAC
:104E300011D8D0F808800CFA06F3CD6828EA0303ED
:104E4000B5402B438360CBF30015436823EA0A0384
:104E5000BD402B434360032C1DD0C3680CFA06F5FC
:104E6000AB438D68B540022C43EA0503C36012D101
:104E70006FF0030302F01C0503EA57030F240344F9
:104E800004FA05FAD3F820800C6928EA0A08AC4035
:104E900044EA08041C6203680CFA06F44D68A34354
:104EA00005F0030415F4403F04FA06F443EA040352
:104EB0000360A5D044F2F44440F2084AC5F6020467
:104EC000C5F6000A0F25236843F002032360236818
:104ED00003F00203019327F00303019C02F00C048A
:104EE00053F80A80A54028EA0508009D05FA04F455
:104EF00044EA080443F80A404FF0B04ADAF8008068
:104F00004C6848EA0905E30258BF28EA0905A302EC
:104F1000CAF80050DEF8008048EA090558BF28EAC0
:104F20000905A303CEF80050DEF8808048EA0905A1
:104F300058BF28EA0905E403CEF88050DEF87C303B
:104F400043EA090558BF23EA0905CEF87C5057E724
:104F500002B0BDE8F08F0000002A08BF090481619B
:104F6000704700000000000041F2A460C2F200405F
:104F7000006870470000000040F2A40041F2A46104
:104F8000C2F20040C2F2004100780A681044086092
:104F9000704700000000000080B5032000F0E4F836
:104FA00002F0A2FD44F218414EF6CC63C5F60201B0
:104FB000C0F600030A68C2F303229A5C096801F094
:104FC0000F0102F01F02595CD04040F20002C2F211
:104FD000004201F01F0120FA01F1116040F22001AE
:104FE000C2F2000108600F2000F00AF800281CBF80
:104FF000012080BD00F054F8002080BD00000000BA
:105000000F2843D8B0B58AB00446A120002221461B
:10501000002500F079F8A12000F066F840F2540075
:10502000C2F20000046044F2EC40C5F602000168E0
:1050300041F080710160006801A900F08070029069
:10504000029802A802F09CFC02F01EFD4DF683615E
:105050004000C4F21B314EF20002A0FB010140F6F9
:105060008C60C2F200004FF0FF33C4F20002026015
:1050700003EB9141C0E9011540F2E731C0E90315A6
:1050800003F0AAFB20B101200AB0B0BD0120704797
:1050900040F68C60C2F2000003F0D2FB0AB0B0BD53
:1050A00081B044F2F440C5F60200016841F002010B
:1050B0000160006800F002000090009801B07047A5
:1050C000002848BF70474EF2801300F01F014009CE
:1050D000CEF20003012202FA01F143F82010BFF3DF
:1050E0004F8FBFF36F8F7047002848BF704700F0A5
:1050F0001F01012202FA01F14EF200124009CEF224
:10510000000242F82010704770B54EF60C5C4FF06C
:10511000FF36CEF2000C00F1604505F56445DCF881
:105120000030C3F3022E8EF00703042B28BF0423A4
:10513000BEF1030406FA03F321EA030100F00F03B2
:1051400038BF0024043B0028634406FA04F048BF3B
:1051500003F10C05A14022EA000008430001287079
:1051600070BD0000000000004EF60C514FF6FF032A
:10517000CEF200010A681A4060F30A2242F0806011
:1051800040F0FD70086070472DE9F04F8FB001913D
:1051900045F20001C5F2002100684BF2044B029079
:1051A000401AC5F2002BB0FA80F04FF0000E002537
:1051B0004009009002E000BF022D70D005EB4500D1
:1051C00003A9013501EBC006022DB2463346344631
:1051D000324641F830E04FF000004AF804EF43F85F
:1051E00008EF44F80CEF42F810EF09D15BF8040C1B
:1051F000C0074FF4007004BF40F22220C0F2044008
:105200004FF0000805E000BF08F10108B8F1010FF8
:10521000D2D15BF828C05FEACC7906D08CEA0007CF
:10522000BF0702D408F1010737605FEACC6707D5F2
:105230008CEA0007BF0603D408F10107CAF8007022
:105240005FEACC5706D58CEA0007BF0502D408F107
:1052500001071F605FEACC370ED58CEA00077F0399
:105260000AD45FEA8C374FF0807758BF4FF480370D
:1052700008F10101394321605FEACC11C4D58CEA01
:1052800000014901C0D45FEA8C114FF0807158BF12
:105290004FF4803108F1010739431160B4E745F25A
:1052A0000008029CC5F20028B4EB0800D8F80010F2
:1052B00018BF0120C90702D14FF0000C07E0D8F851
:1052C00000104FF0010C21F00101C8F800104AF263
:1052D000000E019AC5F2002E03ADDEF80010C907DA
:1052E00007D0DEF800100CF1020C21F00101CEF81D
:1052F000001000EB4003009E05EBC30081680BEB40
:10530000810151F8047C27F4807741F8047C5BF834
:10531000041CC90729D155F83330002B56D00BEBAC
:10532000830151F8043C23F0010341F8043C436835
:105330003BB10BEB830151F8043C23F0100341F81F
:10534000043CC3683BB1012199435BF8213023F44D
:1053500080334BF821300069C0B3012121EA0000FD
:105360005BF8201021F080712EE05BF8040C4445BE
:1053700020F001004BF8040C28D109980BEB8001B8
:105380000A9851F8043C43F0020341F8043C38B158
:105390000BEB800050F8041C41F0200140F8041C85
:1053A0000C9840B1012121EA00005BF8201041F483
:1053B00080214BF820100D9840B1012121EA000016
:1053C0005BF8201041F080614BF8201006EB46009E
:1053D000176855F830309F4215D005EBC00691682C
:1053E000B568A9420CD0556815B171688D4207D0D7
:1053F000D168F568A94203D011693669B14249D133
:105400009F4203AD14D105EBC00751687E68B142DD
:105410000ED1D168FE68B1420AD111693F69B94223
:1054200006D15BF8040C40F001004BF8040C31E0AD
:105430000BEB830105EBC00051F8043C23F00103A2
:1054400041F8043C43683BB10BEB830151F8043C49
:1054500023F0100341F8043CD0E902130BEB810167
:1054600051F8047C27F4807741F8047C3BB101219A
:1054700099435BF8213023F480334BF821300069E5
:1054800040B1012121EA00005BF8201021F0807179
:105490004BF8201090684FF4807144450BEB80006E
:1054A00050F8043C18BF4FF4407123F44073194482
:1054B00040F8041C50695BF8041C431EC1F307410B
:1054C0008B420BD900235BF8041CCFF6FF7321F449
:1054D0007F0103EB004008434BF8040C5BF8041C0D
:1054E00010680138C9075BF8203023F0030327D187
:1054F0000121444518BF032119434BF8201050687F
:1055000060B10BEB80001021444550F8043C18BFFB
:10551000302123F02003194340F8041CD068C10354
:1055200026D4A8B30121444521EA00004FF0807140
:105530005BF8203023F0E06318BF4FF0A06124E057
:1055400043F001014BF82010506840B10BEB800094
:10555000012350F8041C63F3051140F8041CD068C3
:10556000C10328D4A0B34FF080736FF0E06726E04A
:105570000121444521EA00004FF480315BF82030DE
:1055800018BF4FF4A02123F4E02319444BF8201056
:105590001069C10329D4002840D00121444521EAE3
:1055A00000004FF040715BF8203023F0E06318BF3B
:1055B0004FF0E06126E04FF480336FF4E0270121E3
:1055C00021EA00005BF82010394019434BF8201005
:1055D0001069C10318D408B30121032321EA000094
:1055E0005BF8201063F31A6116E00121444521EABB
:1055F00000004FF440315BF8203018BF4FF4E02139
:1056000023F4E023194407E00121032321EA0000E9
:105610005BF8201063F312414BF820105FEACC7066
:1056200005D0D8F8000040F00100C8F800005FEA9B
:105630008C7005D5DEF8000040F00100CEF80000C7
:1056400000200FB0BDE8F08F70B50446FFF78CFC6A
:105650002CB1054600206065216D11B170BD01209F
:1056600070BD204600F084F841F28830A0652068C3
:1056700004F10C034FF6F40C40F2000E0ECB8668DA
:10568000CFF6E00CCFF6FF7E06EA0C060EEB0242E8
:1056900031436FF0FF0C666B11430CEB0322314377
:1056A000E369114319438160C168226A21F4E02152
:1056B0001143C160216BA26B42EA01410161E16BC0
:1056C00041610168626821F4F8510CEB0222114338
:1056D0000160006A80060AD541F28936FFF744FC72
:1056E000401BB04206D22068006A8006F6D4002033
:1056F000012108E04FF400702065606D002140F04A
:10570000010060650120002908BF70BD2168666A3C
:10571000A268013EA369CD6825F0FF05022B46EA89
:105720000506CE600E6826F0400642EA06020A60D0
:10573000D1F8082122F0A042D4E90A6542EA060223
:1057400042EA0502C1F808210A6842F001020A6033
:1057500003D18A6842F002028A60E1680222B1F154
:10576000806F08BF0122226570BD000000000000AC
:105770002DE9F04FB5B0044602A8B8210025CDE9C7
:105780003355CDE931553095FAF7DCFF4AF2000187
:105790002068C5F20021884202D035B0BDE8F08F04
:1057A0004FF00070029002A80395159501F0FCFAE5
:1057B00008B1FCF709F944F2E04040F20008C5F6F0
:1057C0000200C5F6020830AC022750F80C1C4FF05E
:1057D000000941F4001140F80C1C50F80C1C4FF06B
:1057E000030B01F400110191019950F80C1C41F4D4
:1057F000002140F80C1C50F80C1C4FF0090A01F471
:10580000002101910199016841F0010101600168E5
:1058100001F0010101910199016841F0020101606B
:10582000016801F0020101910199016841F0100144
:105830000160016801F0100101910199016841F0D6
:10584000080101600068214600F0080001900198FD
:105850004046CDE93077CDF8C890CDF8CCB0CDF842
:10586000D0A0FFF7A9FA30A9082081E8810A062014
:10587000349040462146FFF79FFA30A9012008F5F1
:105880008066042581E8810A304621463495FFF779
:1058900093FA30A82146CDF8D0A080E8A00A30467F
:1058A000FFF78AFA30A84FF40065214680E8A00A85
:1058B0000B20349008F58050FFF77EFA30A821467F
:1058C000CDF8D0A080E8A00A08F54060FFF774FA90
:1058D00035B0BDE8F08F000001680122C0F8D8247F
:1058E000002280F8CC24886940F000608861486D0F
:1058F00040F08052002042F003024A6570470000E9
:1059000070470000000000000268002051627047EC
:10591000B0B5D0F800E0DEF82400D1B1DEF82830D0
:10592000B1F1010C00EB13430BD05FFA8CF10EF5D3
:105930008070002450F8045F01348C4203EB15435F
:10594000F8D30EEB8C0043EA0241C0F804110020AA
:10595000B0BD40EA0240CEF828000020B0BD0000F3
:10596000D0F8E00406F078B901EBC10200EB820246
:10597000D0F8E004126A06F0D7B80000000000007A
:1059800001EBC10200EB8202D0F8E004D2F8602201
:1059900006F022B900000000D0F8E00406F060B97B
:1059A00010B54AB2044601F00F00B2F1FF3F00EB20
:1059B000C00104EB810205DD02F51571002382F8B8
:1059C000553203E002F114010123537594F8942435
:1059D0000870012A01D1022010BD012084F894042E
:1059E000206806F08DFE002084F8940410BD0000AD
:1059F000B0B50279044601F00F00904201D90120B0
:105A0000B0BD49B2B1F1FF3F09DD00EBC001002399
:105A100004EB810202F5157182F8553207E000EBC4
:105A2000C001012304EB810202F11401537594F8C3
:105A3000942400258D70012A087001D10220B0BD88
:105A4000012084F89404206806F0EAFF284684F8D0
:105A50009454B0BD0000000001F00F0101EBC10142
:105A600000EB8100D0F868027047000000000000E1
:105A700070B54CB2064601F00F00B4F1FF3F00EBE9
:105A8000C00107DD06EB8104002504F5157184F8DB
:105A9000555206E006EB810C01240CF114018CF840
:105AA00015404D7808706FF3DF228A60002D0B716E
:105AB00018BF4883022B01D10020487196F8940446
:105AC000012801D1022070BD012086F894043068BD
:105AD00006F036FD002086F8940470BD000000003A
